{
  "contractName": "SimpleStorage",
  "abi": [
    {
      "constant": false,
      "inputs": [
        {
          "internalType": "uint256",
          "name": "x",
          "type": "uint256"
        }
      ],
      "name": "set",
      "outputs": [],
      "payable": false,
      "stateMutability": "nonpayable",
      "type": "function"
    },
    {
      "constant": true,
      "inputs": [],
      "name": "getData",
      "outputs": [
        {
          "internalType": "uint256",
          "name": "",
          "type": "uint256"
        }
      ],
      "payable": false,
      "stateMutability": "view",
      "type": "function"
    },
    {
      "constant": true,
      "inputs": [],
      "name": "getAddress",
      "outputs": [
        {
          "internalType": "address",
          "name": "",
          "type": "address"
        }
      ],
      "payable": false,
      "stateMutability": "view",
      "type": "function"
    },
    {
      "constant": true,
      "inputs": [],
      "name": "getTime",
      "outputs": [
        {
          "internalType": "uint256",
          "name": "",
          "type": "uint256"
        }
      ],
      "payable": false,
      "stateMutability": "view",
      "type": "function"
    },
    {
      "constant": true,
      "inputs": [],
      "name": "getBlock",
      "outputs": [
        {
          "internalType": "uint256",
          "name": "",
          "type": "uint256"
        }
      ],
      "payable": false,
      "stateMutability": "view",
      "type": "function"
    }
  ],
  "bytecode": "0x608060405234801561001057600080fd5b50610203806100206000396000f3fe608060405234801561001057600080fd5b50600436106100575760003560e01c80632e97766d1461005c57806338cc48311461007a5780633bc5de30146100c4578063557ed1ba146100e257806360fe47b114610100575b600080fd5b61006461012e565b6040518082815260200191505060405180910390f35b610082610138565b604051808273ffffffffffffffffffffffffffffffffffffffff1673ffffffffffffffffffffffffffffffffffffffff16815260200191505060405180910390f35b6100cc610162565b6040518082815260200191505060405180910390f35b6100ea61016b565b6040518082815260200191505060405180910390f35b61012c6004803603602081101561011657600080fd5b8101908080359060200190929190505050610175565b005b6000600354905090565b6000600160009054906101000a900473ffffffffffffffffffffffffffffffffffffffff16905090565b60008054905090565b6000600254905090565b8060008190555033600160006101000a81548173ffffffffffffffffffffffffffffffffffffffff021916908373ffffffffffffffffffffffffffffffffffffffff16021790555042600281905550436003819055505056fea265627a7a72315820d53b748a770789a40d8b8efead830aa6ca9efed02dbb4d2e99f7d479160aa69864736f6c63430005100032",
  "source": "// SPDX-License-Identifier: MIT\npragma solidity >=0.4.21 <0.7.0;\n\ncontract SimpleStorage {\n\n  uint storedData;\n  address recent;\n  uint time;\n  uint blocknum;\n\n  function set(uint x) public {\n    storedData = x;                 //set data to input value\n    recent = msg.sender;            //capture address of most recent user\n    time = block.timestamp;         //capture epoch timestamp of recent interaction \n    blocknum = block.number;        //capture block number\n  }\n\n  function getData() public view returns (uint) {\n    return storedData;\n  }\n  \n  function getAddress() public view returns (address) {\n      return recent;\n  }\n  \n  function getTime() public view returns (uint) {\n      return time;\n  }\n  \n  function getBlock() public view returns (uint) {\n      return blocknum;\n  }\n}",
  "sourcePath": "C:/Users/joema/Desktop/portfolio-site/contracts/SimpleStorage.sol",
  "compiler": {
    "name": "solc",
    "version": "0.5.16+commit.9c3226ce.Emscripten.clang"
  },
  "schemaVersion": "3.3.3",
  "updatedAt": "2021-08-06T18:53:50.891Z",
  "networkType": "ethereum",
  "devdoc": {
    "methods": {}
  },
  "userdoc": {
    "methods": {}
  }
}